:060000000A128A110E280D
:10000800FE00030E83120313AD000A08AE000A12A5
:100018008A1120280A128A11112883120313A001B9
:10002800A101A201A301A401A501A601A701A8019C
:1000380083010A128A1104290B1C232824288A28E0
:100048000618272828283028861C2B282C283028F2
:100058000130AB002B08A807061C332834283A289F
:100068008618372838283A280130A8026430F0006A
:100078000030F1002808AB00AC012B08F2002C0876
:10008800F3000A128A119D200A128A11710883123C
:100098000313A5007008A4000A30F9000030FA0024
:1000A8000A30F0000030F1002808AB00AC012B0842
:1000B800F2002C08F3000A128A119D200A128A11F4
:1000C8007108FC007008FB000A128A1164210A12E8
:1000D8008A117A0883120313A3007908A2000A3050
:1000E800F9000030FA002808AB00AC012B08FB002F
:1000F8002C08FC000A128A1164210A128A117A0853
:1001080083120313A1007908A0000B100D3083128D
:100118000313AC00FB30AB00AB0B9028AC0B902862
:10012800831203132E088A002D0E8300FE0E7E0E06
:100138000900F601F11FA128A228A928F009F10950
:10014800F00A0319F10AF601F60AF31FAC28AD28E4
:10015800B628F209F309F20A0319F30A0130F40088
:100168007408F606F701F801700871040319BD2830
:10017800BE28F528F501F50ACC2801300310F00D4A
:10018800F10DFF3E031DC2280130F4007408F50785
:10019800F11FCF28D028C12801300310F70DF80D22
:1001A800FF3E031DD12871087302031DDD28700866
:1001B8007202031CE028E128E8287008F20271089E
:1001C800031CF303F302771401300310F10CF00C55
:1001D800FF3E031DE9280130F502031DF428F52828
:1001E800D02876080319F928FA28FF28F709F8090A
:1001F800F70A0319F80A7808F1007708F0000800F0
:100208000A128A11BF210A128A110A128A11DC21E4
:100218000A128A11831203132408303E99000D3004
:1002280083120313B000FB30AF00AF0B1929B00BDA
:100238001929831203132208303E99000D308312C6
:100248000313B000FB30AF00AF0B2829B00B2829EF
:10025800831203132008303E99000D3083120313D4
:10026800B000FB30AF00AF0B3729B00B37290A308D
:100278008312031399000D3083120313B000FB306F
:10028800AF00AF0B4529B00B45290D30831203137E
:1002980099000D3083120313B000FB30AF00AF0B91
:1002A8005329B00B5329831203138C1E5C295D2933
:1002B8000E291A0888008C120E290A128A110E2893
:1002C80083120313AA01FC1F6A296B297229FB09EF
:1002D800FC09FB0A0319FC0AAA01AA0AFA1F7529D4
:1002E80076297B29F909FA09F90A0319FA0A79081A
:1002F8007A04031980298129B029A901A90A8F291B
:1003080001300310F90DFA0DFF3E031D8529013058
:10031800FD007D08A907FA1F9229932984297A08E4
:100328007C02031D992979087B02031C9C299D29BD
:10033800A3297908FB027A08031CFC03FC0201309C
:100348000310FA0CF90CFF3E031DA4290130A90281
:10035800031DAF29B02993292A080319B429B529FF
:10036800BA29FB09FC09FB0A0319FC0A7C08FA00F4
:100378007B08F900080083160317890103308316E8
:1003880003138600880189018312031385018801FC
:1003980089018316031381130330950003309600F7
:1003A80070308F040F148B170B170B108B15080068
:1003B8000C308316031399009A011811831603173A
:1003C80087118316031318128312031398178316C1
:1003D80003139816831203130C1218168C120800B4
:08400000FF3FFF3FFF3FFF3FC0
:04400E00D420FF3F7C
:00000001FF
